:1000000001308A007C2900006D30840083130008D1
:10001000031918280330F800F701F70B0D28F80B27
:100020000C283C30F700F70B13281628800B0A2801
:10003000080060080C1E1A28990061080C1E1E2872
:10004000990062080C1E2228990063080C1E2628BD
:10005000990064080C1E2A28990068080C1E2E2896
:10006000990067080C1E3228990066080C1E362875
:10007000990065080C1E3A28990008005030E000ED
:100080004D30E1005430E2005830E300E401E80173
:10009000E701E601E50119200430EB00FA30ED003C
:1000A0000420EB0B4E288A110A12DB2994138C11C1
:1000B0006E0893000230941B64288C1D5D2800306C
:1000C0008316111B01308312F800080083161114E7
:1000D0001118682883126B08EE005620EE01562096
:1000E0006C081E3C031876281E30EC0009306C07A3
:1000F000ED00EE0056208316111511197D282830C9
:100100008312ED0004200800141383169115911931
:10011000872877189112771C91161116111A8E28BC
:1001200083121308F8000800A8012808093C031CE2
:1001300079298316111411189B2883126B08EE007D
:1001400056202808EE005620831691149118A628F0
:10015000013083126B07EC00EE0056200310280DCF
:100160002B3E84008313F70184207808840A8001E1
:10017000840380000310280D2B3E84008313F701B5
:10018000842078080007840AF8000008FA000318A1
:10019000FA0A840378088000840A7A088000031031
:1001A000280D2B3E84008313F70184207808000774
:1001B000840AF8000008FA000318FA0A8403780891
:1001C0008000840A7A0880000310280D2B3E8400EA
:1001D0008313F701842078080007840AF8000008D8
:1001E000FA000318FA0A840378088000840A7A085F
:1001F00080000310280D2B3E84008313F701842018
:1002000078080007840AF8000008FA000318FA0AC0
:10021000840378088000840A7A0880000310280D7F
:100220002B3E84008313F701842078080007840A9A
:10023000F8000008FA000318FA0A8403780880001E
:10024000840A7A0880000310280D2B3EF800FA017A
:100250000318FA0A7808EC007A08ED000310280D5C
:100260002B3E84008313840A0008EF0084030008F7
:10027000EE006F08F1006E08F000F3010630F200A6
:10028000F801F901F701FA017308031D4A29720800
:10029000031964291030F4000310F00DF10DF70D6F
:1002A000FA0D73087A02031D572972087702031C9E
:1002B00060297208F702031CFA037308FA02031498
:1002C000F80DF90DF40B4C296C08840083136D189C
:1002D0008317840A790880008403780880008316D5
:1002E00011151119712901308312ED000420A80A9B
:1002F00095288A110A12E329FF30A600A6152608C0
:100300008316870083122616260883168700183066
:10031000930028308312940083169417141320300E
:100320009900A6309800903083129800D030A70032
:10033000EA01E90183161F149F141F159F118313EF
:100340001F3083058312A001A101BF013330C0001B
:10035000CC30C100C2019930C300C401C500C60140
:10036000CC30C700C8016630C900CA01CC30CB0010
:10037000CC01CD01CE01E630CF005C30D000D10100
:10038000D201FF30D300D400D501D601D700D80068
:10039000B330D900DA01FF30DB00DC00DD00DE0124
:1003A0000830EB00FA30ED000420EB0BD229831665
:1003B000880183123E28D030EB00EC016620A901B1
:1003C000D030EB009428AA012A08073C031C4D2AD0
:1003D0000330E400E801E701E601E5012908E50052
:1003E00019200430E400E801E701E601E5012A08EC
:1003F000E50019201D30E400E801E701E601E50110
:100400002A08093CF7000310F70D77082B3E8400FB
:100410008313840A0008FA0084030008F8007A08AD
:100420002E02031C1B2A031D192A2D08780203180B
:100430001B2ADF012D2A2A08093CF7000310F70DBB
:1004400077082B3E84008313840A0008EC008403A1
:100450000008EB002D086B02DF005F08073C031863
:10046000332A0730DF005F0DF700F70DFC30F7058A
:1004700077083F3E840083130008E500840A0008E3
:10048000E600840A0008E700840A0008E800192052
:100490000230ED000420AA0AE429A90A2908073C31
:1004A0000318622AA901D030EB002908EC0066206D
:1004B000BE30ED000420E401E801E701E601E501BA
:1004C0001920672AD030EB002908EC006620E029CB
:0404D000DF296300BD
:02400E00323F3F
:00000001FF
;PIC16F877
;CRC=C387  CREATED="02-Mai-16 16:36"
