:1000000000308A002828000094138C1134089300D3
:100010000230941B12288C1D0B2800308316111BF4
:1000200001308312F8008A110A125E281413831615
:1000300091159119192877189112771C911611169C
:10004000111A202883121308F8008A110A12612855
:10005000FF30A600A61526088316870083122616F1
:1000600026088316870018309300283083129400E6
:1000700083169417141340309900A63098009030DE
:1000800083129800D030A70083161F149F141F15E9
:100090009F1183131F3083058312A001A1018316D2
:1000A0001114111851288801831208108316911415
:1000B0009118582810308312B40004280130F7003A
:0600C0001628562863001B
:02400E00713F00
:00000001FF
;PIC16F877
;CRC=A184  CREATED="11-Apr-16 17:28"
